{
  "_format": "hh-sol-artifact-1",
  "contractName": "MusicNFT",
  "sourceName": "contracts/MusicNFT.sol",
  "abi": [
    {
      "inputs": [],
      "stateMutability": "nonpayable",
      "type": "constructor"
    },
    {
      "anonymous": false,
      "inputs": [
        {
          "indexed": true,
          "internalType": "address",
          "name": "owner",
          "type": "address"
        },
        {
          "indexed": true,
          "internalType": "address",
          "name": "approved",
          "type": "address"
        },
        {
          "indexed": true,
          "internalType": "uint256",
          "name": "tokenId",
          "type": "uint256"
        }
      ],
      "name": "Approval",
      "type": "event"
    },
    {
      "anonymous": false,
      "inputs": [
        {
          "indexed": true,
          "internalType": "address",
          "name": "owner",
          "type": "address"
        },
        {
          "indexed": true,
          "internalType": "address",
          "name": "operator",
          "type": "address"
        },
        {
          "indexed": false,
          "internalType": "bool",
          "name": "approved",
          "type": "bool"
        }
      ],
      "name": "ApprovalForAll",
      "type": "event"
    },
    {
      "anonymous": false,
      "inputs": [
        {
          "indexed": true,
          "internalType": "address",
          "name": "previousOwner",
          "type": "address"
        },
        {
          "indexed": true,
          "internalType": "address",
          "name": "newOwner",
          "type": "address"
        }
      ],
      "name": "OwnershipTransferred",
      "type": "event"
    },
    {
      "anonymous": false,
      "inputs": [
        {
          "indexed": true,
          "internalType": "address",
          "name": "from",
          "type": "address"
        },
        {
          "indexed": true,
          "internalType": "address",
          "name": "to",
          "type": "address"
        },
        {
          "indexed": true,
          "internalType": "uint256",
          "name": "tokenId",
          "type": "uint256"
        }
      ],
      "name": "Transfer",
      "type": "event"
    },
    {
      "inputs": [
        {
          "internalType": "address",
          "name": "to",
          "type": "address"
        },
        {
          "internalType": "uint256",
          "name": "tokenId",
          "type": "uint256"
        }
      ],
      "name": "approve",
      "outputs": [],
      "stateMutability": "nonpayable",
      "type": "function"
    },
    {
      "inputs": [
        {
          "internalType": "address",
          "name": "owner",
          "type": "address"
        }
      ],
      "name": "balanceOf",
      "outputs": [
        {
          "internalType": "uint256",
          "name": "",
          "type": "uint256"
        }
      ],
      "stateMutability": "view",
      "type": "function"
    },
    {
      "inputs": [
        {
          "internalType": "uint256",
          "name": "tokenId",
          "type": "uint256"
        }
      ],
      "name": "getApproved",
      "outputs": [
        {
          "internalType": "address",
          "name": "",
          "type": "address"
        }
      ],
      "stateMutability": "view",
      "type": "function"
    },
    {
      "inputs": [
        {
          "internalType": "address",
          "name": "owner",
          "type": "address"
        },
        {
          "internalType": "address",
          "name": "operator",
          "type": "address"
        }
      ],
      "name": "isApprovedForAll",
      "outputs": [
        {
          "internalType": "bool",
          "name": "",
          "type": "bool"
        }
      ],
      "stateMutability": "view",
      "type": "function"
    },
    {
      "inputs": [],
      "name": "name",
      "outputs": [
        {
          "internalType": "string",
          "name": "",
          "type": "string"
        }
      ],
      "stateMutability": "view",
      "type": "function"
    },
    {
      "inputs": [],
      "name": "owner",
      "outputs": [
        {
          "internalType": "address",
          "name": "",
          "type": "address"
        }
      ],
      "stateMutability": "view",
      "type": "function"
    },
    {
      "inputs": [
        {
          "internalType": "uint256",
          "name": "tokenId",
          "type": "uint256"
        }
      ],
      "name": "ownerOf",
      "outputs": [
        {
          "internalType": "address",
          "name": "",
          "type": "address"
        }
      ],
      "stateMutability": "view",
      "type": "function"
    },
    {
      "inputs": [],
      "name": "renounceOwnership",
      "outputs": [],
      "stateMutability": "nonpayable",
      "type": "function"
    },
    {
      "inputs": [
        {
          "internalType": "address",
          "name": "to",
          "type": "address"
        },
        {
          "internalType": "string",
          "name": "uri",
          "type": "string"
        }
      ],
      "name": "safeMint",
      "outputs": [],
      "stateMutability": "nonpayable",
      "type": "function"
    },
    {
      "inputs": [
        {
          "internalType": "address",
          "name": "from",
          "type": "address"
        },
        {
          "internalType": "address",
          "name": "to",
          "type": "address"
        },
        {
          "internalType": "uint256",
          "name": "tokenId",
          "type": "uint256"
        }
      ],
      "name": "safeTransferFrom",
      "outputs": [],
      "stateMutability": "nonpayable",
      "type": "function"
    },
    {
      "inputs": [
        {
          "internalType": "address",
          "name": "from",
          "type": "address"
        },
        {
          "internalType": "address",
          "name": "to",
          "type": "address"
        },
        {
          "internalType": "uint256",
          "name": "tokenId",
          "type": "uint256"
        },
        {
          "internalType": "bytes",
          "name": "data",
          "type": "bytes"
        }
      ],
      "name": "safeTransferFrom",
      "outputs": [],
      "stateMutability": "nonpayable",
      "type": "function"
    },
    {
      "inputs": [
        {
          "internalType": "address",
          "name": "operator",
          "type": "address"
        },
        {
          "internalType": "bool",
          "name": "approved",
          "type": "bool"
        }
      ],
      "name": "setApprovalForAll",
      "outputs": [],
      "stateMutability": "nonpayable",
      "type": "function"
    },
    {
      "inputs": [
        {
          "internalType": "bytes4",
          "name": "interfaceId",
          "type": "bytes4"
        }
      ],
      "name": "supportsInterface",
      "outputs": [
        {
          "internalType": "bool",
          "name": "",
          "type": "bool"
        }
      ],
      "stateMutability": "view",
      "type": "function"
    },
    {
      "inputs": [],
      "name": "symbol",
      "outputs": [
        {
          "internalType": "string",
          "name": "",
          "type": "string"
        }
      ],
      "stateMutability": "view",
      "type": "function"
    },
    {
      "inputs": [
        {
          "internalType": "uint256",
          "name": "index",
          "type": "uint256"
        }
      ],
      "name": "tokenByIndex",
      "outputs": [
        {
          "internalType": "uint256",
          "name": "",
          "type": "uint256"
        }
      ],
      "stateMutability": "view",
      "type": "function"
    },
    {
      "inputs": [
        {
          "internalType": "address",
          "name": "owner",
          "type": "address"
        },
        {
          "internalType": "uint256",
          "name": "index",
          "type": "uint256"
        }
      ],
      "name": "tokenOfOwnerByIndex",
      "outputs": [
        {
          "internalType": "uint256",
          "name": "",
          "type": "uint256"
        }
      ],
      "stateMutability": "view",
      "type": "function"
    },
    {
      "inputs": [
        {
          "internalType": "uint256",
          "name": "tokenId",
          "type": "uint256"
        }
      ],
      "name": "tokenURI",
      "outputs": [
        {
          "internalType": "string",
          "name": "",
          "type": "string"
        }
      ],
      "stateMutability": "view",
      "type": "function"
    },
    {
      "inputs": [],
      "name": "totalSupply",
      "outputs": [
        {
          "internalType": "uint256",
          "name": "",
          "type": "uint256"
        }
      ],
      "stateMutability": "view",
      "type": "function"
    },
    {
      "inputs": [
        {
          "internalType": "address",
          "name": "from",
          "type": "address"
        },
        {
          "internalType": "address",
          "name": "to",
          "type": "address"
        },
        {
          "internalType": "uint256",
          "name": "tokenId",
          "type": "uint256"
        }
      ],
      "name": "transferFrom",
      "outputs": [],
      "stateMutability": "nonpayable",
      "type": "function"
    },
    {
      "inputs": [
        {
          "internalType": "address",
          "name": "newOwner",
          "type": "address"
        }
      ],
      "name": "transferOwnership",
      "outputs": [],
      "stateMutability": "nonpayable",
      "type": "function"
    }
  ],
  "bytecode": "0x60806040523480156200001157600080fd5b506040805180820182526008815267135d5cda58d3919560c21b6020808301918252835180850190945260038452624d555360e81b9084015281519192916200005d91600091620000ec565b50805162000073906001906020840190620000ec565b505050620000906200008a6200009660201b60201c565b6200009a565b620001ce565b3390565b600b80546001600160a01b038381166001600160a01b0319831681179093556040519116919082907f8be0079c531659141344cd1fd0a4f28419497f9722a3daafe3b4186f6b6457e090600090a35050565b828054620000fa9062000192565b90600052602060002090601f0160209004810192826200011e576000855562000169565b82601f106200013957805160ff191683800117855562000169565b8280016001018555821562000169579182015b82811115620001695782518255916020019190600101906200014c565b50620001779291506200017b565b5090565b5b808211156200017757600081556001016200017c565b600181811c90821680620001a757607f821691505b602082108103620001c857634e487b7160e01b600052602260045260246000fd5b50919050565b611bb280620001de6000396000f3fe608060405234801561001057600080fd5b506004361061012c5760003560e01c806370a08231116100ad578063b88d4fde11610071578063b88d4fde14610266578063c87b56dd14610279578063d204c45e1461028c578063e985e9c51461029f578063f2fde38b146102db57600080fd5b806370a082311461021f578063715018a6146102325780638da5cb5b1461023a57806395d89b411461024b578063a22cb4651461025357600080fd5b806323b872dd116100f457806323b872dd146101c05780632f745c59146101d357806342842e0e146101e65780634f6ccce7146101f95780636352211e1461020c57600080fd5b806301ffc9a71461013157806306fdde0314610159578063081812fc1461016e578063095ea7b31461019957806318160ddd146101ae575b600080fd5b61014461013f36600461163a565b6102ee565b60405190151581526020015b60405180910390f35b6101616102ff565b60405161015091906116af565b61018161017c3660046116c2565b610391565b6040516001600160a01b039091168152602001610150565b6101ac6101a73660046116f7565b6103b8565b005b6008545b604051908152602001610150565b6101ac6101ce366004611721565b6104d2565b6101b26101e13660046116f7565b610503565b6101ac6101f4366004611721565b610599565b6101b26102073660046116c2565b6105b4565b61018161021a3660046116c2565b610647565b6101b261022d36600461175d565b6106a7565b6101ac61072d565b600b546001600160a01b0316610181565b610161610741565b6101ac610261366004611778565b610750565b6101ac610274366004611840565b61075f565b6101616102873660046116c2565b610797565b6101ac61029a3660046118bc565b6107a2565b6101446102ad36600461191e565b6001600160a01b03918216600090815260056020908152604080832093909416825291909152205460ff1690565b6101ac6102e936600461175d565b6107d9565b60006102f982610852565b92915050565b60606000805461030e90611951565b80601f016020809104026020016040519081016040528092919081815260200182805461033a90611951565b80156103875780601f1061035c57610100808354040283529160200191610387565b820191906000526020600020905b81548152906001019060200180831161036a57829003601f168201915b5050505050905090565b600061039c82610877565b506000908152600460205260409020546001600160a01b031690565b60006103c382610647565b9050806001600160a01b0316836001600160a01b0316036104355760405162461bcd60e51b815260206004820152602160248201527f4552433732313a20617070726f76616c20746f2063757272656e74206f776e656044820152603960f91b60648201526084015b60405180910390fd5b336001600160a01b0382161480610451575061045181336102ad565b6104c35760405162461bcd60e51b815260206004820152603e60248201527f4552433732313a20617070726f76652063616c6c6572206973206e6f7420746f60448201527f6b656e206f776e6572206e6f7220617070726f76656420666f7220616c6c0000606482015260840161042c565b6104cd83836108d6565b505050565b6104dc3382610944565b6104f85760405162461bcd60e51b815260040161042c9061198b565b6104cd8383836109c3565b600061050e836106a7565b82106105705760405162461bcd60e51b815260206004820152602b60248201527f455243373231456e756d657261626c653a206f776e657220696e646578206f7560448201526a74206f6620626f756e647360a81b606482015260840161042c565b506001600160a01b03919091166000908152600660209081526040808320938352929052205490565b6104cd8383836040518060200160405280600081525061075f565b60006105bf60085490565b82106106225760405162461bcd60e51b815260206004820152602c60248201527f455243373231456e756d657261626c653a20676c6f62616c20696e646578206f60448201526b7574206f6620626f756e647360a01b606482015260840161042c565b60088281548110610635576106356119d9565b90600052602060002001549050919050565b6000818152600260205260408120546001600160a01b0316806102f95760405162461bcd60e51b8152602060048201526018602482015277115490cdcc8c4e881a5b9d985b1a59081d1bdad95b88125160421b604482015260640161042c565b60006001600160a01b0382166107115760405162461bcd60e51b815260206004820152602960248201527f4552433732313a2061646472657373207a65726f206973206e6f7420612076616044820152683634b21037bbb732b960b91b606482015260840161042c565b506001600160a01b031660009081526003602052604090205490565b610735610b6a565b61073f6000610bc4565b565b60606001805461030e90611951565b61075b338383610c16565b5050565b6107693383610944565b6107855760405162461bcd60e51b815260040161042c9061198b565b61079184848484610ce4565b50505050565b60606102f982610d17565b6107aa610b6a565b60006107b5600c5490565b90506107c5600c80546001019055565b6107cf8382610e2e565b6104cd8183610e48565b6107e1610b6a565b6001600160a01b0381166108465760405162461bcd60e51b815260206004820152602660248201527f4f776e61626c653a206e6577206f776e657220697320746865207a65726f206160448201526564647265737360d01b606482015260840161042c565b61084f81610bc4565b50565b60006001600160e01b0319821663780e9d6360e01b14806102f957506102f982610ee2565b6000818152600260205260409020546001600160a01b031661084f5760405162461bcd60e51b8152602060048201526018602482015277115490cdcc8c4e881a5b9d985b1a59081d1bdad95b88125160421b604482015260640161042c565b600081815260046020526040902080546001600160a01b0319166001600160a01b038416908117909155819061090b82610647565b6001600160a01b03167f8c5be1e5ebec7d5bd14f71427d1e84f3dd0314c0f7b2291e5b200ac8c7c3b92560405160405180910390a45050565b60008061095083610647565b9050806001600160a01b0316846001600160a01b0316148061099757506001600160a01b0380821660009081526005602090815260408083209388168352929052205460ff165b806109bb5750836001600160a01b03166109b084610391565b6001600160a01b0316145b949350505050565b826001600160a01b03166109d682610647565b6001600160a01b031614610a3a5760405162461bcd60e51b815260206004820152602560248201527f4552433732313a207472616e736665722066726f6d20696e636f72726563742060448201526437bbb732b960d91b606482015260840161042c565b6001600160a01b038216610a9c5760405162461bcd60e51b8152602060048201526024808201527f4552433732313a207472616e7366657220746f20746865207a65726f206164646044820152637265737360e01b606482015260840161042c565b610aa7838383610f32565b610ab26000826108d6565b6001600160a01b0383166000908152600360205260408120805460019290610adb908490611a05565b90915550506001600160a01b0382166000908152600360205260408120805460019290610b09908490611a1c565b909155505060008181526002602052604080822080546001600160a01b0319166001600160a01b0386811691821790925591518493918716917fddf252ad1be2c89b69c2b068fc378daa952ba7f163c4a11628f55a4df523b3ef91a4505050565b600b546001600160a01b0316331461073f5760405162461bcd60e51b815260206004820181905260248201527f4f776e61626c653a2063616c6c6572206973206e6f7420746865206f776e6572604482015260640161042c565b600b80546001600160a01b038381166001600160a01b0319831681179093556040519116919082907f8be0079c531659141344cd1fd0a4f28419497f9722a3daafe3b4186f6b6457e090600090a35050565b816001600160a01b0316836001600160a01b031603610c775760405162461bcd60e51b815260206004820152601960248201527f4552433732313a20617070726f766520746f2063616c6c657200000000000000604482015260640161042c565b6001600160a01b03838116600081815260056020908152604080832094871680845294825291829020805460ff191686151590811790915591519182527f17307eab39ab6107e8899845ad3d59bd9653f200f220920489ca2b5937696c31910160405180910390a3505050565b610cef8484846109c3565b610cfb84848484610f3d565b6107915760405162461bcd60e51b815260040161042c90611a34565b6060610d2282610877565b6000828152600a602052604081208054610d3b90611951565b80601f0160208091040260200160405190810160405280929190818152602001828054610d6790611951565b8015610db45780601f10610d8957610100808354040283529160200191610db4565b820191906000526020600020905b815481529060010190602001808311610d9757829003601f168201915b505050505090506000610de1604080518082019091526007815266697066733a2f2f60c81b602082015290565b90508051600003610df3575092915050565b815115610e25578082604051602001610e0d929190611a86565b60405160208183030381529060405292505050919050565b6109bb8461103e565b61075b8282604051806020016040528060008152506110c1565b6000828152600260205260409020546001600160a01b0316610ec35760405162461bcd60e51b815260206004820152602e60248201527f45524337323155524953746f726167653a2055524920736574206f66206e6f6e60448201526d32bc34b9ba32b73a103a37b5b2b760911b606482015260840161042c565b6000828152600a6020908152604090912082516104cd9284019061158b565b60006001600160e01b031982166380ac58cd60e01b1480610f1357506001600160e01b03198216635b5e139f60e01b145b806102f957506301ffc9a760e01b6001600160e01b03198316146102f9565b6104cd8383836110f4565b60006001600160a01b0384163b1561103357604051630a85bd0160e11b81526001600160a01b0385169063150b7a0290610f81903390899088908890600401611ab5565b6020604051808303816000875af1925050508015610fbc575060408051601f3d908101601f19168201909252610fb991810190611af2565b60015b611019573d808015610fea576040519150601f19603f3d011682016040523d82523d6000602084013e610fef565b606091505b5080516000036110115760405162461bcd60e51b815260040161042c90611a34565b805181602001fd5b6001600160e01b031916630a85bd0160e11b1490506109bb565b506001949350505050565b606061104982610877565b600061106f604080518082019091526007815266697066733a2f2f60c81b602082015290565b9050600081511161108f57604051806020016040528060008152506110ba565b80611099846111ac565b6040516020016110aa929190611a86565b6040516020818303038152906040525b9392505050565b6110cb83836112ad565b6110d86000848484610f3d565b6104cd5760405162461bcd60e51b815260040161042c90611a34565b6001600160a01b03831661114f5761114a81600880546000838152600960205260408120829055600182018355919091527ff3f7a9fe364faab93b216da50a3214154f22a0a2b415b23a84c8169e8b636ee30155565b611172565b816001600160a01b0316836001600160a01b0316146111725761117283826113fb565b6001600160a01b038216611189576104cd81611498565b826001600160a01b0316826001600160a01b0316146104cd576104cd8282611547565b6060816000036111d35750506040805180820190915260018152600360fc1b602082015290565b8160005b81156111fd57806111e781611b0f565b91506111f69050600a83611b3e565b91506111d7565b60008167ffffffffffffffff811115611218576112186117b4565b6040519080825280601f01601f191660200182016040528015611242576020820181803683370190505b5090505b84156109bb57611257600183611a05565b9150611264600a86611b52565b61126f906030611a1c565b60f81b818381518110611284576112846119d9565b60200101906001600160f81b031916908160001a9053506112a6600a86611b3e565b9450611246565b6001600160a01b0382166113035760405162461bcd60e51b815260206004820181905260248201527f4552433732313a206d696e7420746f20746865207a65726f2061646472657373604482015260640161042c565b6000818152600260205260409020546001600160a01b0316156113685760405162461bcd60e51b815260206004820152601c60248201527f4552433732313a20746f6b656e20616c7265616479206d696e74656400000000604482015260640161042c565b61137460008383610f32565b6001600160a01b038216600090815260036020526040812080546001929061139d908490611a1c565b909155505060008181526002602052604080822080546001600160a01b0319166001600160a01b03861690811790915590518392907fddf252ad1be2c89b69c2b068fc378daa952ba7f163c4a11628f55a4df523b3ef908290a45050565b60006001611408846106a7565b6114129190611a05565b600083815260076020526040902054909150808214611465576001600160a01b03841660009081526006602090815260408083208584528252808320548484528184208190558352600790915290208190555b5060009182526007602090815260408084208490556001600160a01b039094168352600681528383209183525290812055565b6008546000906114aa90600190611a05565b600083815260096020526040812054600880549394509092849081106114d2576114d26119d9565b9060005260206000200154905080600883815481106114f3576114f36119d9565b600091825260208083209091019290925582815260099091526040808220849055858252812055600880548061152b5761152b611b66565b6001900381819060005260206000200160009055905550505050565b6000611552836106a7565b6001600160a01b039093166000908152600660209081526040808320868452825280832085905593825260079052919091209190915550565b82805461159790611951565b90600052602060002090601f0160209004810192826115b957600085556115ff565b82601f106115d257805160ff19168380011785556115ff565b828001600101855582156115ff579182015b828111156115ff5782518255916020019190600101906115e4565b5061160b92915061160f565b5090565b5b8082111561160b5760008155600101611610565b6001600160e01b03198116811461084f57600080fd5b60006020828403121561164c57600080fd5b81356110ba81611624565b60005b8381101561167257818101518382015260200161165a565b838111156107915750506000910152565b6000815180845261169b816020860160208601611657565b601f01601f19169290920160200192915050565b6020815260006110ba6020830184611683565b6000602082840312156116d457600080fd5b5035919050565b80356001600160a01b03811681146116f257600080fd5b919050565b6000806040838503121561170a57600080fd5b611713836116db565b946020939093013593505050565b60008060006060848603121561173657600080fd5b61173f846116db565b925061174d602085016116db565b9150604084013590509250925092565b60006020828403121561176f57600080fd5b6110ba826116db565b6000806040838503121561178b57600080fd5b611794836116db565b9150602083013580151581146117a957600080fd5b809150509250929050565b634e487b7160e01b600052604160045260246000fd5b600067ffffffffffffffff808411156117e5576117e56117b4565b604051601f8501601f19908116603f0116810190828211818310171561180d5761180d6117b4565b8160405280935085815286868601111561182657600080fd5b858560208301376000602087830101525050509392505050565b6000806000806080858703121561185657600080fd5b61185f856116db565b935061186d602086016116db565b925060408501359150606085013567ffffffffffffffff81111561189057600080fd5b8501601f810187136118a157600080fd5b6118b0878235602084016117ca565b91505092959194509250565b600080604083850312156118cf57600080fd5b6118d8836116db565b9150602083013567ffffffffffffffff8111156118f457600080fd5b8301601f8101851361190557600080fd5b611914858235602084016117ca565b9150509250929050565b6000806040838503121561193157600080fd5b61193a836116db565b9150611948602084016116db565b90509250929050565b600181811c9082168061196557607f821691505b60208210810361198557634e487b7160e01b600052602260045260246000fd5b50919050565b6020808252602e908201527f4552433732313a2063616c6c6572206973206e6f7420746f6b656e206f776e6560408201526d1c881b9bdc88185c1c1c9bdd995960921b606082015260800190565b634e487b7160e01b600052603260045260246000fd5b634e487b7160e01b600052601160045260246000fd5b600082821015611a1757611a176119ef565b500390565b60008219821115611a2f57611a2f6119ef565b500190565b60208082526032908201527f4552433732313a207472616e7366657220746f206e6f6e20455243373231526560408201527131b2b4bb32b91034b6b83632b6b2b73a32b960711b606082015260800190565b60008351611a98818460208801611657565b835190830190611aac818360208801611657565b01949350505050565b6001600160a01b0385811682528416602082015260408101839052608060608201819052600090611ae890830184611683565b9695505050505050565b600060208284031215611b0457600080fd5b81516110ba81611624565b600060018201611b2157611b216119ef565b5060010190565b634e487b7160e01b600052601260045260246000fd5b600082611b4d57611b4d611b28565b500490565b600082611b6157611b61611b28565b500690565b634e487b7160e01b600052603160045260246000fdfea2646970667358221220ba9f77c2b8d9c506f78f4c6a0b2883a073caf4fadf0b02a9d1a5c215a10eccab64736f6c634300080e0033",
  "linkReferences": {},
  "deployedLinkReferences": {}
}