{
  "_format": "hh-sol-artifact-1",
  "contractName": "MusicNFT",
  "sourceName": "contracts/MusicNFT.sol",
  "abi": [
    {
      "inputs": [],
      "stateMutability": "nonpayable",
      "type": "constructor"
    },
    {
      "anonymous": false,
      "inputs": [
        {
          "indexed": true,
          "internalType": "address",
          "name": "owner",
          "type": "address"
        },
        {
          "indexed": true,
          "internalType": "address",
          "name": "approved",
          "type": "address"
        },
        {
          "indexed": true,
          "internalType": "uint256",
          "name": "tokenId",
          "type": "uint256"
        }
      ],
      "name": "Approval",
      "type": "event"
    },
    {
      "anonymous": false,
      "inputs": [
        {
          "indexed": true,
          "internalType": "address",
          "name": "owner",
          "type": "address"
        },
        {
          "indexed": true,
          "internalType": "address",
          "name": "operator",
          "type": "address"
        },
        {
          "indexed": false,
          "internalType": "bool",
          "name": "approved",
          "type": "bool"
        }
      ],
      "name": "ApprovalForAll",
      "type": "event"
    },
    {
      "anonymous": false,
      "inputs": [
        {
          "indexed": true,
          "internalType": "address",
          "name": "previousOwner",
          "type": "address"
        },
        {
          "indexed": true,
          "internalType": "address",
          "name": "newOwner",
          "type": "address"
        }
      ],
      "name": "OwnershipTransferred",
      "type": "event"
    },
    {
      "anonymous": false,
      "inputs": [
        {
          "indexed": true,
          "internalType": "address",
          "name": "from",
          "type": "address"
        },
        {
          "indexed": true,
          "internalType": "address",
          "name": "to",
          "type": "address"
        },
        {
          "indexed": true,
          "internalType": "uint256",
          "name": "tokenId",
          "type": "uint256"
        }
      ],
      "name": "Transfer",
      "type": "event"
    },
    {
      "inputs": [
        {
          "internalType": "address",
          "name": "to",
          "type": "address"
        },
        {
          "internalType": "uint256",
          "name": "tokenId",
          "type": "uint256"
        }
      ],
      "name": "approve",
      "outputs": [],
      "stateMutability": "nonpayable",
      "type": "function"
    },
    {
      "inputs": [
        {
          "internalType": "address",
          "name": "owner",
          "type": "address"
        }
      ],
      "name": "balanceOf",
      "outputs": [
        {
          "internalType": "uint256",
          "name": "",
          "type": "uint256"
        }
      ],
      "stateMutability": "view",
      "type": "function"
    },
    {
      "inputs": [
        {
          "internalType": "uint256",
          "name": "tokenId",
          "type": "uint256"
        }
      ],
      "name": "getApproved",
      "outputs": [
        {
          "internalType": "address",
          "name": "",
          "type": "address"
        }
      ],
      "stateMutability": "view",
      "type": "function"
    },
    {
      "inputs": [
        {
          "internalType": "address",
          "name": "_owner",
          "type": "address"
        }
      ],
      "name": "getTokensByOwner",
      "outputs": [
        {
          "internalType": "uint256[]",
          "name": "",
          "type": "uint256[]"
        }
      ],
      "stateMutability": "view",
      "type": "function"
    },
    {
      "inputs": [
        {
          "internalType": "address",
          "name": "owner",
          "type": "address"
        },
        {
          "internalType": "address",
          "name": "operator",
          "type": "address"
        }
      ],
      "name": "isApprovedForAll",
      "outputs": [
        {
          "internalType": "bool",
          "name": "",
          "type": "bool"
        }
      ],
      "stateMutability": "view",
      "type": "function"
    },
    {
      "inputs": [],
      "name": "name",
      "outputs": [
        {
          "internalType": "string",
          "name": "",
          "type": "string"
        }
      ],
      "stateMutability": "view",
      "type": "function"
    },
    {
      "inputs": [],
      "name": "owner",
      "outputs": [
        {
          "internalType": "address",
          "name": "",
          "type": "address"
        }
      ],
      "stateMutability": "view",
      "type": "function"
    },
    {
      "inputs": [
        {
          "internalType": "uint256",
          "name": "tokenId",
          "type": "uint256"
        }
      ],
      "name": "ownerOf",
      "outputs": [
        {
          "internalType": "address",
          "name": "",
          "type": "address"
        }
      ],
      "stateMutability": "view",
      "type": "function"
    },
    {
      "inputs": [],
      "name": "renounceOwnership",
      "outputs": [],
      "stateMutability": "nonpayable",
      "type": "function"
    },
    {
      "inputs": [
        {
          "internalType": "address",
          "name": "to",
          "type": "address"
        },
        {
          "internalType": "string",
          "name": "uri",
          "type": "string"
        }
      ],
      "name": "safeMint",
      "outputs": [],
      "stateMutability": "nonpayable",
      "type": "function"
    },
    {
      "inputs": [
        {
          "internalType": "address",
          "name": "from",
          "type": "address"
        },
        {
          "internalType": "address",
          "name": "to",
          "type": "address"
        },
        {
          "internalType": "uint256",
          "name": "tokenId",
          "type": "uint256"
        }
      ],
      "name": "safeTransferFrom",
      "outputs": [],
      "stateMutability": "nonpayable",
      "type": "function"
    },
    {
      "inputs": [
        {
          "internalType": "address",
          "name": "from",
          "type": "address"
        },
        {
          "internalType": "address",
          "name": "to",
          "type": "address"
        },
        {
          "internalType": "uint256",
          "name": "tokenId",
          "type": "uint256"
        },
        {
          "internalType": "bytes",
          "name": "data",
          "type": "bytes"
        }
      ],
      "name": "safeTransferFrom",
      "outputs": [],
      "stateMutability": "nonpayable",
      "type": "function"
    },
    {
      "inputs": [
        {
          "internalType": "address",
          "name": "operator",
          "type": "address"
        },
        {
          "internalType": "bool",
          "name": "approved",
          "type": "bool"
        }
      ],
      "name": "setApprovalForAll",
      "outputs": [],
      "stateMutability": "nonpayable",
      "type": "function"
    },
    {
      "inputs": [
        {
          "internalType": "bytes4",
          "name": "interfaceId",
          "type": "bytes4"
        }
      ],
      "name": "supportsInterface",
      "outputs": [
        {
          "internalType": "bool",
          "name": "",
          "type": "bool"
        }
      ],
      "stateMutability": "view",
      "type": "function"
    },
    {
      "inputs": [],
      "name": "symbol",
      "outputs": [
        {
          "internalType": "string",
          "name": "",
          "type": "string"
        }
      ],
      "stateMutability": "view",
      "type": "function"
    },
    {
      "inputs": [
        {
          "internalType": "uint256",
          "name": "index",
          "type": "uint256"
        }
      ],
      "name": "tokenByIndex",
      "outputs": [
        {
          "internalType": "uint256",
          "name": "",
          "type": "uint256"
        }
      ],
      "stateMutability": "view",
      "type": "function"
    },
    {
      "inputs": [
        {
          "internalType": "address",
          "name": "owner",
          "type": "address"
        },
        {
          "internalType": "uint256",
          "name": "index",
          "type": "uint256"
        }
      ],
      "name": "tokenOfOwnerByIndex",
      "outputs": [
        {
          "internalType": "uint256",
          "name": "",
          "type": "uint256"
        }
      ],
      "stateMutability": "view",
      "type": "function"
    },
    {
      "inputs": [
        {
          "internalType": "uint256",
          "name": "tokenId",
          "type": "uint256"
        }
      ],
      "name": "tokenURI",
      "outputs": [
        {
          "internalType": "string",
          "name": "",
          "type": "string"
        }
      ],
      "stateMutability": "view",
      "type": "function"
    },
    {
      "inputs": [],
      "name": "totalSupply",
      "outputs": [
        {
          "internalType": "uint256",
          "name": "",
          "type": "uint256"
        }
      ],
      "stateMutability": "view",
      "type": "function"
    },
    {
      "inputs": [
        {
          "internalType": "address",
          "name": "from",
          "type": "address"
        },
        {
          "internalType": "address",
          "name": "to",
          "type": "address"
        },
        {
          "internalType": "uint256",
          "name": "tokenId",
          "type": "uint256"
        }
      ],
      "name": "transferFrom",
      "outputs": [],
      "stateMutability": "nonpayable",
      "type": "function"
    },
    {
      "inputs": [
        {
          "internalType": "address",
          "name": "newOwner",
          "type": "address"
        }
      ],
      "name": "transferOwnership",
      "outputs": [],
      "stateMutability": "nonpayable",
      "type": "function"
    }
  ],
  "bytecode": "0x60806040523480156200001157600080fd5b506040805180820182526008815267135d5cda58d3919560c21b6020808301918252835180850190945260038452624d555360e81b9084015281519192916200005d91600091620000ec565b50805162000073906001906020840190620000ec565b505050620000906200008a6200009660201b60201c565b6200009a565b620001ce565b3390565b600b80546001600160a01b038381166001600160a01b0319831681179093556040519116919082907f8be0079c531659141344cd1fd0a4f28419497f9722a3daafe3b4186f6b6457e090600090a35050565b828054620000fa9062000192565b90600052602060002090601f0160209004810192826200011e576000855562000169565b82601f106200013957805160ff191683800117855562000169565b8280016001018555821562000169579182015b82811115620001695782518255916020019190600101906200014c565b50620001779291506200017b565b5090565b5b808211156200017757600081556001016200017c565b600181811c90821680620001a757607f821691505b602082108103620001c857634e487b7160e01b600052602260045260246000fd5b50919050565b611cf180620001de6000396000f3fe608060405234801561001057600080fd5b50600436106101375760003560e01c80636352211e116100b8578063a22cb4651161007c578063a22cb4651461027e578063b88d4fde14610291578063c87b56dd146102a4578063d204c45e146102b7578063e985e9c5146102ca578063f2fde38b1461030657600080fd5b80636352211e1461023757806370a082311461024a578063715018a61461025d5780638da5cb5b1461026557806395d89b411461027657600080fd5b806323b872dd116100ff57806323b872dd146101cb5780632f745c59146101de57806340398d67146101f157806342842e0e146102115780634f6ccce71461022457600080fd5b806301ffc9a71461013c57806306fdde0314610164578063081812fc14610179578063095ea7b3146101a457806318160ddd146101b9575b600080fd5b61014f61014a366004611735565b610319565b60405190151581526020015b60405180910390f35b61016c61032a565b60405161015b91906117aa565b61018c6101873660046117bd565b6103bc565b6040516001600160a01b03909116815260200161015b565b6101b76101b23660046117f2565b6103e3565b005b6008545b60405190815260200161015b565b6101b76101d936600461181c565b6104fd565b6101bd6101ec3660046117f2565b61052e565b6102046101ff366004611858565b6105c4565b60405161015b9190611873565b6101b761021f36600461181c565b61069c565b6101bd6102323660046117bd565b6106b7565b61018c6102453660046117bd565b61074a565b6101bd610258366004611858565b6107aa565b6101b7610830565b600b546001600160a01b031661018c565b61016c610844565b6101b761028c3660046118b7565b610853565b6101b761029f36600461197f565b610862565b61016c6102b23660046117bd565b61089a565b6101b76102c53660046119fb565b6108a5565b61014f6102d8366004611a5d565b6001600160a01b03918216600090815260056020908152604080832093909416825291909152205460ff1690565b6101b7610314366004611858565b6108d4565b60006103248261094d565b92915050565b60606000805461033990611a90565b80601f016020809104026020016040519081016040528092919081815260200182805461036590611a90565b80156103b25780601f10610387576101008083540402835291602001916103b2565b820191906000526020600020905b81548152906001019060200180831161039557829003601f168201915b5050505050905090565b60006103c782610972565b506000908152600460205260409020546001600160a01b031690565b60006103ee8261074a565b9050806001600160a01b0316836001600160a01b0316036104605760405162461bcd60e51b815260206004820152602160248201527f4552433732313a20617070726f76616c20746f2063757272656e74206f776e656044820152603960f91b60648201526084015b60405180910390fd5b336001600160a01b038216148061047c575061047c81336102d8565b6104ee5760405162461bcd60e51b815260206004820152603e60248201527f4552433732313a20617070726f76652063616c6c6572206973206e6f7420746f60448201527f6b656e206f776e6572206e6f7220617070726f76656420666f7220616c6c00006064820152608401610457565b6104f883836109d1565b505050565b6105073382610a3f565b6105235760405162461bcd60e51b815260040161045790611aca565b6104f8838383610abe565b6000610539836107aa565b821061059b5760405162461bcd60e51b815260206004820152602b60248201527f455243373231456e756d657261626c653a206f776e657220696e646578206f7560448201526a74206f6620626f756e647360a81b6064820152608401610457565b506001600160a01b03919091166000908152600660209081526040808320938352929052205490565b606060006105d160085490565b905060006105de846107aa565b905060008167ffffffffffffffff8111156105fb576105fb6118f3565b604051908082528060200260200182016040528015610624578160200160208202803683370190505b5090506000805b8481101561069157866001600160a01b03166106468261074a565b6001600160a01b03160361067f5780838361066081611b2e565b94508151811061067257610672611b47565b6020026020010181815250505b8061068981611b2e565b91505061062b565b509095945050505050565b6104f883838360405180602001604052806000815250610862565b60006106c260085490565b82106107255760405162461bcd60e51b815260206004820152602c60248201527f455243373231456e756d657261626c653a20676c6f62616c20696e646578206f60448201526b7574206f6620626f756e647360a01b6064820152608401610457565b6008828154811061073857610738611b47565b90600052602060002001549050919050565b6000818152600260205260408120546001600160a01b0316806103245760405162461bcd60e51b8152602060048201526018602482015277115490cdcc8c4e881a5b9d985b1a59081d1bdad95b88125160421b6044820152606401610457565b60006001600160a01b0382166108145760405162461bcd60e51b815260206004820152602960248201527f4552433732313a2061646472657373207a65726f206973206e6f7420612076616044820152683634b21037bbb732b960b91b6064820152608401610457565b506001600160a01b031660009081526003602052604090205490565b610838610c65565b6108426000610cbf565b565b60606001805461033990611a90565b61085e338383610d11565b5050565b61086c3383610a3f565b6108885760405162461bcd60e51b815260040161045790611aca565b61089484848484610ddf565b50505050565b606061032482610e12565b60006108b0600c5490565b90506108c0600c80546001019055565b6108ca8382610f29565b6104f88183610f43565b6108dc610c65565b6001600160a01b0381166109415760405162461bcd60e51b815260206004820152602660248201527f4f776e61626c653a206e6577206f776e657220697320746865207a65726f206160448201526564647265737360d01b6064820152608401610457565b61094a81610cbf565b50565b60006001600160e01b0319821663780e9d6360e01b1480610324575061032482610fdd565b6000818152600260205260409020546001600160a01b031661094a5760405162461bcd60e51b8152602060048201526018602482015277115490cdcc8c4e881a5b9d985b1a59081d1bdad95b88125160421b6044820152606401610457565b600081815260046020526040902080546001600160a01b0319166001600160a01b0384169081179091558190610a068261074a565b6001600160a01b03167f8c5be1e5ebec7d5bd14f71427d1e84f3dd0314c0f7b2291e5b200ac8c7c3b92560405160405180910390a45050565b600080610a4b8361074a565b9050806001600160a01b0316846001600160a01b03161480610a9257506001600160a01b0380821660009081526005602090815260408083209388168352929052205460ff165b80610ab65750836001600160a01b0316610aab846103bc565b6001600160a01b0316145b949350505050565b826001600160a01b0316610ad18261074a565b6001600160a01b031614610b355760405162461bcd60e51b815260206004820152602560248201527f4552433732313a207472616e736665722066726f6d20696e636f72726563742060448201526437bbb732b960d91b6064820152608401610457565b6001600160a01b038216610b975760405162461bcd60e51b8152602060048201526024808201527f4552433732313a207472616e7366657220746f20746865207a65726f206164646044820152637265737360e01b6064820152608401610457565b610ba283838361102d565b610bad6000826109d1565b6001600160a01b0383166000908152600360205260408120805460019290610bd6908490611b5d565b90915550506001600160a01b0382166000908152600360205260408120805460019290610c04908490611b74565b909155505060008181526002602052604080822080546001600160a01b0319166001600160a01b0386811691821790925591518493918716917fddf252ad1be2c89b69c2b068fc378daa952ba7f163c4a11628f55a4df523b3ef91a4505050565b600b546001600160a01b031633146108425760405162461bcd60e51b815260206004820181905260248201527f4f776e61626c653a2063616c6c6572206973206e6f7420746865206f776e65726044820152606401610457565b600b80546001600160a01b038381166001600160a01b0319831681179093556040519116919082907f8be0079c531659141344cd1fd0a4f28419497f9722a3daafe3b4186f6b6457e090600090a35050565b816001600160a01b0316836001600160a01b031603610d725760405162461bcd60e51b815260206004820152601960248201527f4552433732313a20617070726f766520746f2063616c6c6572000000000000006044820152606401610457565b6001600160a01b03838116600081815260056020908152604080832094871680845294825291829020805460ff191686151590811790915591519182527f17307eab39ab6107e8899845ad3d59bd9653f200f220920489ca2b5937696c31910160405180910390a3505050565b610dea848484610abe565b610df684848484611038565b6108945760405162461bcd60e51b815260040161045790611b8c565b6060610e1d82610972565b6000828152600a602052604081208054610e3690611a90565b80601f0160208091040260200160405190810160405280929190818152602001828054610e6290611a90565b8015610eaf5780601f10610e8457610100808354040283529160200191610eaf565b820191906000526020600020905b815481529060010190602001808311610e9257829003601f168201915b505050505090506000610edc604080518082019091526007815266697066733a2f2f60c81b602082015290565b90508051600003610eee575092915050565b815115610f20578082604051602001610f08929190611bde565b60405160208183030381529060405292505050919050565b610ab684611139565b61085e8282604051806020016040528060008152506111bc565b6000828152600260205260409020546001600160a01b0316610fbe5760405162461bcd60e51b815260206004820152602e60248201527f45524337323155524953746f726167653a2055524920736574206f66206e6f6e60448201526d32bc34b9ba32b73a103a37b5b2b760911b6064820152608401610457565b6000828152600a6020908152604090912082516104f892840190611686565b60006001600160e01b031982166380ac58cd60e01b148061100e57506001600160e01b03198216635b5e139f60e01b145b8061032457506301ffc9a760e01b6001600160e01b0319831614610324565b6104f88383836111ef565b60006001600160a01b0384163b1561112e57604051630a85bd0160e11b81526001600160a01b0385169063150b7a029061107c903390899088908890600401611c0d565b6020604051808303816000875af19250505080156110b7575060408051601f3d908101601f191682019092526110b491810190611c4a565b60015b611114573d8080156110e5576040519150601f19603f3d011682016040523d82523d6000602084013e6110ea565b606091505b50805160000361110c5760405162461bcd60e51b815260040161045790611b8c565b805181602001fd5b6001600160e01b031916630a85bd0160e11b149050610ab6565b506001949350505050565b606061114482610972565b600061116a604080518082019091526007815266697066733a2f2f60c81b602082015290565b9050600081511161118a57604051806020016040528060008152506111b5565b80611194846112a7565b6040516020016111a5929190611bde565b6040516020818303038152906040525b9392505050565b6111c683836113a8565b6111d36000848484611038565b6104f85760405162461bcd60e51b815260040161045790611b8c565b6001600160a01b03831661124a5761124581600880546000838152600960205260408120829055600182018355919091527ff3f7a9fe364faab93b216da50a3214154f22a0a2b415b23a84c8169e8b636ee30155565b61126d565b816001600160a01b0316836001600160a01b03161461126d5761126d83826114f6565b6001600160a01b038216611284576104f881611593565b826001600160a01b0316826001600160a01b0316146104f8576104f88282611642565b6060816000036112ce5750506040805180820190915260018152600360fc1b602082015290565b8160005b81156112f857806112e281611b2e565b91506112f19050600a83611c7d565b91506112d2565b60008167ffffffffffffffff811115611313576113136118f3565b6040519080825280601f01601f19166020018201604052801561133d576020820181803683370190505b5090505b8415610ab657611352600183611b5d565b915061135f600a86611c91565b61136a906030611b74565b60f81b81838151811061137f5761137f611b47565b60200101906001600160f81b031916908160001a9053506113a1600a86611c7d565b9450611341565b6001600160a01b0382166113fe5760405162461bcd60e51b815260206004820181905260248201527f4552433732313a206d696e7420746f20746865207a65726f20616464726573736044820152606401610457565b6000818152600260205260409020546001600160a01b0316156114635760405162461bcd60e51b815260206004820152601c60248201527f4552433732313a20746f6b656e20616c7265616479206d696e746564000000006044820152606401610457565b61146f6000838361102d565b6001600160a01b0382166000908152600360205260408120805460019290611498908490611b74565b909155505060008181526002602052604080822080546001600160a01b0319166001600160a01b03861690811790915590518392907fddf252ad1be2c89b69c2b068fc378daa952ba7f163c4a11628f55a4df523b3ef908290a45050565b60006001611503846107aa565b61150d9190611b5d565b600083815260076020526040902054909150808214611560576001600160a01b03841660009081526006602090815260408083208584528252808320548484528184208190558352600790915290208190555b5060009182526007602090815260408084208490556001600160a01b039094168352600681528383209183525290812055565b6008546000906115a590600190611b5d565b600083815260096020526040812054600880549394509092849081106115cd576115cd611b47565b9060005260206000200154905080600883815481106115ee576115ee611b47565b600091825260208083209091019290925582815260099091526040808220849055858252812055600880548061162657611626611ca5565b6001900381819060005260206000200160009055905550505050565b600061164d836107aa565b6001600160a01b039093166000908152600660209081526040808320868452825280832085905593825260079052919091209190915550565b82805461169290611a90565b90600052602060002090601f0160209004810192826116b457600085556116fa565b82601f106116cd57805160ff19168380011785556116fa565b828001600101855582156116fa579182015b828111156116fa5782518255916020019190600101906116df565b5061170692915061170a565b5090565b5b80821115611706576000815560010161170b565b6001600160e01b03198116811461094a57600080fd5b60006020828403121561174757600080fd5b81356111b58161171f565b60005b8381101561176d578181015183820152602001611755565b838111156108945750506000910152565b60008151808452611796816020860160208601611752565b601f01601f19169290920160200192915050565b6020815260006111b5602083018461177e565b6000602082840312156117cf57600080fd5b5035919050565b80356001600160a01b03811681146117ed57600080fd5b919050565b6000806040838503121561180557600080fd5b61180e836117d6565b946020939093013593505050565b60008060006060848603121561183157600080fd5b61183a846117d6565b9250611848602085016117d6565b9150604084013590509250925092565b60006020828403121561186a57600080fd5b6111b5826117d6565b6020808252825182820181905260009190848201906040850190845b818110156118ab5783518352928401929184019160010161188f565b50909695505050505050565b600080604083850312156118ca57600080fd5b6118d3836117d6565b9150602083013580151581146118e857600080fd5b809150509250929050565b634e487b7160e01b600052604160045260246000fd5b600067ffffffffffffffff80841115611924576119246118f3565b604051601f8501601f19908116603f0116810190828211818310171561194c5761194c6118f3565b8160405280935085815286868601111561196557600080fd5b858560208301376000602087830101525050509392505050565b6000806000806080858703121561199557600080fd5b61199e856117d6565b93506119ac602086016117d6565b925060408501359150606085013567ffffffffffffffff8111156119cf57600080fd5b8501601f810187136119e057600080fd5b6119ef87823560208401611909565b91505092959194509250565b60008060408385031215611a0e57600080fd5b611a17836117d6565b9150602083013567ffffffffffffffff811115611a3357600080fd5b8301601f81018513611a4457600080fd5b611a5385823560208401611909565b9150509250929050565b60008060408385031215611a7057600080fd5b611a79836117d6565b9150611a87602084016117d6565b90509250929050565b600181811c90821680611aa457607f821691505b602082108103611ac457634e487b7160e01b600052602260045260246000fd5b50919050565b6020808252602e908201527f4552433732313a2063616c6c6572206973206e6f7420746f6b656e206f776e6560408201526d1c881b9bdc88185c1c1c9bdd995960921b606082015260800190565b634e487b7160e01b600052601160045260246000fd5b600060018201611b4057611b40611b18565b5060010190565b634e487b7160e01b600052603260045260246000fd5b600082821015611b6f57611b6f611b18565b500390565b60008219821115611b8757611b87611b18565b500190565b60208082526032908201527f4552433732313a207472616e7366657220746f206e6f6e20455243373231526560408201527131b2b4bb32b91034b6b83632b6b2b73a32b960711b606082015260800190565b60008351611bf0818460208801611752565b835190830190611c04818360208801611752565b01949350505050565b6001600160a01b0385811682528416602082015260408101839052608060608201819052600090611c409083018461177e565b9695505050505050565b600060208284031215611c5c57600080fd5b81516111b58161171f565b634e487b7160e01b600052601260045260246000fd5b600082611c8c57611c8c611c67565b500490565b600082611ca057611ca0611c67565b500690565b634e487b7160e01b600052603160045260246000fdfea2646970667358221220c29d31031a82d138d140142a3d42ce6b4e2381cc32bcfc962fc26d0363864b3764736f6c634300080e0033",
  "linkReferences": {},
  "deployedLinkReferences": {}
}